{
  "contractName": "Buyer",
  "abi": [
    {
      "inputs": [
        {
          "internalType": "address payable",
          "name": "fruitAddress",
          "type": "address"
        }
      ],
      "stateMutability": "payable",
      "type": "constructor",
      "payable": true
    },
    {
      "stateMutability": "payable",
      "type": "fallback",
      "payable": true
    },
    {
      "inputs": [],
      "name": "bought",
      "outputs": [
        {
          "internalType": "uint256",
          "name": "",
          "type": "uint256"
        }
      ],
      "stateMutability": "view",
      "type": "function",
      "constant": true
    },
    {
      "inputs": [],
      "name": "fruit",
      "outputs": [
        {
          "internalType": "contract Fruit",
          "name": "",
          "type": "address"
        }
      ],
      "stateMutability": "view",
      "type": "function",
      "constant": true
    },
    {
      "inputs": [],
      "name": "money",
      "outputs": [
        {
          "internalType": "uint256",
          "name": "",
          "type": "uint256"
        }
      ],
      "stateMutability": "view",
      "type": "function",
      "constant": true
    },
    {
      "inputs": [],
      "name": "owner",
      "outputs": [
        {
          "internalType": "address payable",
          "name": "",
          "type": "address"
        }
      ],
      "stateMutability": "view",
      "type": "function",
      "constant": true
    },
    {
      "stateMutability": "payable",
      "type": "receive",
      "payable": true
    },
    {
      "inputs": [
        {
          "internalType": "uint256",
          "name": "quantityToBuy",
          "type": "uint256"
        }
      ],
      "name": "buy",
      "outputs": [],
      "stateMutability": "payable",
      "type": "function",
      "payable": true
    },
    {
      "inputs": [],
      "name": "read_money",
      "outputs": [
        {
          "internalType": "uint256",
          "name": "",
          "type": "uint256"
        }
      ],
      "stateMutability": "view",
      "type": "function",
      "constant": true
    },
    {
      "inputs": [],
      "name": "read_bought",
      "outputs": [
        {
          "internalType": "uint256",
          "name": "",
          "type": "uint256"
        }
      ],
      "stateMutability": "view",
      "type": "function",
      "constant": true
    }
  ],
  "bytecode": "0x6080604052604051610ae8380380610ae88339818101604052810190610025919061011e565b336000806101000a81548173ffffffffffffffffffffffffffffffffffffffff021916908373ffffffffffffffffffffffffffffffffffffffff16021790555034600181905550600060028190555080600360006101000a81548173ffffffffffffffffffffffffffffffffffffffff021916908373ffffffffffffffffffffffffffffffffffffffff1602179055505061014b565b600080fd5b600073ffffffffffffffffffffffffffffffffffffffff82169050919050565b60006100eb826100c0565b9050919050565b6100fb816100e0565b811461010657600080fd5b50565b600081519050610118816100f2565b92915050565b600060208284031215610134576101336100bb565b5b600061014284828501610109565b91505092915050565b61098e8061015a6000396000f3fe6080604052600436106100745760003560e01c80634ddd108a1161004e5780634ddd108a1461012e57806387015ba2146101595780638da5cb5b14610184578063d96a094a146101af57610093565b80630c813f44146100ad57806334976b9b146100d8578063353e06bd1461010357610093565b3661009357346001600082825461008b9190610573565b925050819055005b34600160008282546100a59190610573565b925050819055005b3480156100b957600080fd5b506100c26101cb565b6040516100cf91906105b6565b60405180910390f35b3480156100e457600080fd5b506100ed6101d5565b6040516100fa91906105b6565b60405180910390f35b34801561010f57600080fd5b506101186101db565b6040516101259190610650565b60405180910390f35b34801561013a57600080fd5b50610143610201565b60405161015091906105b6565b60405180910390f35b34801561016557600080fd5b5061016e610207565b60405161017b91906105b6565b60405180910390f35b34801561019057600080fd5b50610199610211565b6040516101a6919061068c565b60405180910390f35b6101c960048036038101906101c491906106d8565b610235565b005b6000600254905090565b60025481565b600360009054906101000a900473ffffffffffffffffffffffffffffffffffffffff1681565b60015481565b6000600154905090565b60008054906101000a900473ffffffffffffffffffffffffffffffffffffffff1681565b60008054906101000a900473ffffffffffffffffffffffffffffffffffffffff1673ffffffffffffffffffffffffffffffffffffffff163373ffffffffffffffffffffffffffffffffffffffff16146102c3576040517f08c379a00000000000000000000000000000000000000000000000000000000081526004016102ba90610762565b60405180910390fd5b600081600360009054906101000a900473ffffffffffffffffffffffffffffffffffffffff1673ffffffffffffffffffffffffffffffffffffffff16638c4439596040518163ffffffff1660e01b8152600401602060405180830381865afa158015610333573d6000803e3d6000fd5b505050506040513d601f19601f820116820180604052508101906103579190610797565b61036191906107c4565b90508060015410156103a8576040517f08c379a000000000000000000000000000000000000000000000000000000000815260040161039f90610852565b60405180910390fd5b6000600360009054906101000a900473ffffffffffffffffffffffffffffffffffffffff1673ffffffffffffffffffffffffffffffffffffffff16826040516103f0906108a3565b60006040518083038185875af1925050503d806000811461042d576040519150601f19603f3d011682016040523d82523d6000602084013e610432565b606091505b5050905080610476576040517f08c379a000000000000000000000000000000000000000000000000000000000815260040161046d90610904565b60405180910390fd5b600360009054906101000a900473ffffffffffffffffffffffffffffffffffffffff1673ffffffffffffffffffffffffffffffffffffffff1663c4aab8b1846040518263ffffffff1660e01b81526004016104d191906105b6565b600060405180830381600087803b1580156104eb57600080fd5b505af11580156104ff573d6000803e3d6000fd5b5050505081600160008282546105159190610924565b92505081905550826002600082825461052e9190610573565b92505081905550505050565b6000819050919050565b7f4e487b7100000000000000000000000000000000000000000000000000000000600052601160045260246000fd5b600061057e8261053a565b91506105898361053a565b92508282019050808211156105a1576105a0610544565b5b92915050565b6105b08161053a565b82525050565b60006020820190506105cb60008301846105a7565b92915050565b600073ffffffffffffffffffffffffffffffffffffffff82169050919050565b6000819050919050565b600061061661061161060c846105d1565b6105f1565b6105d1565b9050919050565b6000610628826105fb565b9050919050565b600061063a8261061d565b9050919050565b61064a8161062f565b82525050565b60006020820190506106656000830184610641565b92915050565b6000610676826105d1565b9050919050565b6106868161066b565b82525050565b60006020820190506106a1600083018461067d565b92915050565b600080fd5b6106b58161053a565b81146106c057600080fd5b50565b6000813590506106d2816106ac565b92915050565b6000602082840312156106ee576106ed6106a7565b5b60006106fc848285016106c3565b91505092915050565b600082825260208201905092915050565b7f4e6f7420746865206f776e657200000000000000000000000000000000000000600082015250565b600061074c600d83610705565b915061075782610716565b602082019050919050565b6000602082019050818103600083015261077b8161073f565b9050919050565b600081519050610791816106ac565b92915050565b6000602082840312156107ad576107ac6106a7565b5b60006107bb84828501610782565b91505092915050565b60006107cf8261053a565b91506107da8361053a565b92508282026107e88161053a565b915082820484148315176107ff576107fe610544565b5b5092915050565b7f4e6f7420656e6f75676820457468657200000000000000000000000000000000600082015250565b600061083c601083610705565b915061084782610806565b602082019050919050565b6000602082019050818103600083015261086b8161082f565b9050919050565b600081905092915050565b50565b600061088d600083610872565b91506108988261087d565b600082019050919050565b60006108ae82610880565b9150819050919050565b7f53656e64206661696c6564000000000000000000000000000000000000000000600082015250565b60006108ee600b83610705565b91506108f9826108b8565b602082019050919050565b6000602082019050818103600083015261091d816108e1565b9050919050565b600061092f8261053a565b915061093a8361053a565b925082820390508181111561095257610951610544565b5b9291505056fea264697066735822122046294f03c8acc595bbb4784bc758c8eca6d3d9d9338b10f57300ae9ed88db1a164736f6c63430008120033",
  "immutableReferences": {},
  "source": "// SPDX-License-Identifier: MIT\npragma solidity >=0.8.0 <0.9.0;\n\nimport \"./Fruit.sol\";\n\ncontract Buyer {\n    address payable public owner;\n    uint256 public money;\n    uint256 public bought;\n    Fruit public fruit;\n\n    constructor(address payable fruitAddress) payable {\n        owner = payable(msg.sender);\n        money = msg.value;\n        bought = 0;\n        fruit = Fruit(fruitAddress);\n    }\n\n    modifier onlyOwner() {\n        require(msg.sender == owner, \"Not the owner\");\n        _;\n    }\n\n    function buy(uint256 quantityToBuy) public onlyOwner payable {\n        uint256 totalPrice = fruit.read_price() * quantityToBuy;\n        require(money >= totalPrice, \"Not enough Ether\");\n\n        //  \n        (bool success, ) = address(fruit).call{value: totalPrice}(\"\");\n        require(success, \"Send failed\");\n\n        fruit.decrease_quantity(quantityToBuy);\n\n        money -= totalPrice;\n        bought += quantityToBuy;\n    }\n\n    function read_money() public view returns (uint256) {\n        return money;\n    }\n\n    function read_bought() public view returns (uint256) {\n        return bought;\n    }\n\n    // Receive Ether and update money\n    receive() external payable {\n        money += msg.value;\n    }\n\n    fallback() external payable {\n        money += msg.value;\n    }\n\n}\n",
  "sourcePath": "/Users/kdi/Desktop/my_web3/react_truffle/truffle/contracts/Buyer.sol",
  "compiler": {
    "name": "solc",
    "version": "0.8.18+commit.87f61d96.Emscripten.clang"
  },
  "schemaVersion": "3.4.16",
  "updatedAt": "2025-06-13T13:54:39.881Z",
  "networkType": "ethereum",
  "devdoc": {
    "kind": "dev",
    "methods": {},
    "version": 1
  },
  "userdoc": {
    "kind": "user",
    "methods": {},
    "version": 1
  }
}