{
  "contractName": "Comment",
  "abi": [
    {
      "anonymous": false,
      "inputs": [
        {
          "indexed": false,
          "internalType": "uint256",
          "name": "id",
          "type": "uint256"
        },
        {
          "indexed": false,
          "internalType": "string",
          "name": "title",
          "type": "string"
        },
        {
          "indexed": false,
          "internalType": "address",
          "name": "author",
          "type": "address"
        }
      ],
      "name": "PostCreated",
      "type": "event"
    },
    {
      "inputs": [],
      "name": "postCount",
      "outputs": [
        {
          "internalType": "uint256",
          "name": "",
          "type": "uint256"
        }
      ],
      "stateMutability": "view",
      "type": "function",
      "constant": true
    },
    {
      "inputs": [
        {
          "internalType": "uint256",
          "name": "",
          "type": "uint256"
        }
      ],
      "name": "posts",
      "outputs": [
        {
          "internalType": "uint256",
          "name": "id",
          "type": "uint256"
        },
        {
          "internalType": "string",
          "name": "title",
          "type": "string"
        },
        {
          "internalType": "string",
          "name": "content",
          "type": "string"
        },
        {
          "internalType": "address",
          "name": "author",
          "type": "address"
        },
        {
          "internalType": "uint256",
          "name": "timestamp",
          "type": "uint256"
        }
      ],
      "stateMutability": "view",
      "type": "function",
      "constant": true
    },
    {
      "inputs": [
        {
          "internalType": "string",
          "name": "_title",
          "type": "string"
        },
        {
          "internalType": "string",
          "name": "_content",
          "type": "string"
        }
      ],
      "name": "createPost",
      "outputs": [],
      "stateMutability": "nonpayable",
      "type": "function"
    },
    {
      "inputs": [
        {
          "internalType": "uint256",
          "name": "_id",
          "type": "uint256"
        }
      ],
      "name": "getPost",
      "outputs": [
        {
          "components": [
            {
              "internalType": "uint256",
              "name": "id",
              "type": "uint256"
            },
            {
              "internalType": "string",
              "name": "title",
              "type": "string"
            },
            {
              "internalType": "string",
              "name": "content",
              "type": "string"
            },
            {
              "internalType": "address",
              "name": "author",
              "type": "address"
            },
            {
              "internalType": "uint256",
              "name": "timestamp",
              "type": "uint256"
            }
          ],
          "internalType": "struct Comment.Post",
          "name": "",
          "type": "tuple"
        }
      ],
      "stateMutability": "view",
      "type": "function",
      "constant": true
    },
    {
      "inputs": [],
      "name": "getAllPosts",
      "outputs": [
        {
          "components": [
            {
              "internalType": "uint256",
              "name": "id",
              "type": "uint256"
            },
            {
              "internalType": "string",
              "name": "title",
              "type": "string"
            },
            {
              "internalType": "string",
              "name": "content",
              "type": "string"
            },
            {
              "internalType": "address",
              "name": "author",
              "type": "address"
            },
            {
              "internalType": "uint256",
              "name": "timestamp",
              "type": "uint256"
            }
          ],
          "internalType": "struct Comment.Post[]",
          "name": "",
          "type": "tuple[]"
        }
      ],
      "stateMutability": "view",
      "type": "function",
      "constant": true
    }
  ],
  "bytecode": "0x6080604052600060015534801561001557600080fd5b5061126c806100256000396000f3fe608060405234801561001057600080fd5b50600436106100575760003560e01c80630b1e7f831461005c57806317906c2e1461009057806330561100146100ae578063392338f5146100cc57806340731c24146100e8575b600080fd5b6100766004803603810190610071919061086a565b610118565b604051610087959493929190610977565b60405180910390f35b61009861028e565b6040516100a591906109d8565b60405180910390f35b6100b6610294565b6040516100c39190610b9a565b60405180910390f35b6100e660048036038101906100e19190610cf1565b610481565b005b61010260048036038101906100fd919061086a565b6105cd565b60405161010f9190610de6565b60405180910390f35b6000818154811061012857600080fd5b906000526020600020906005020160009150905080600001549080600101805461015190610e37565b80601f016020809104026020016040519081016040528092919081815260200182805461017d90610e37565b80156101ca5780601f1061019f576101008083540402835291602001916101ca565b820191906000526020600020905b8154815290600101906020018083116101ad57829003601f168201915b5050505050908060020180546101df90610e37565b80601f016020809104026020016040519081016040528092919081815260200182805461020b90610e37565b80156102585780601f1061022d57610100808354040283529160200191610258565b820191906000526020600020905b81548152906001019060200180831161023b57829003601f168201915b5050505050908060030160009054906101000a900473ffffffffffffffffffffffffffffffffffffffff16908060040154905085565b60015481565b60606000805480602002602001604051908101604052809291908181526020016000905b8282101561047857838290600052602060002090600502016040518060a0016040529081600082015481526020016001820180546102f590610e37565b80601f016020809104026020016040519081016040528092919081815260200182805461032190610e37565b801561036e5780601f106103435761010080835404028352916020019161036e565b820191906000526020600020905b81548152906001019060200180831161035157829003601f168201915b5050505050815260200160028201805461038790610e37565b80601f01602080910402602001604051908101604052809291908181526020018280546103b390610e37565b80156104005780601f106103d557610100808354040283529160200191610400565b820191906000526020600020905b8154815290600101906020018083116103e357829003601f168201915b505050505081526020016003820160009054906101000a900473ffffffffffffffffffffffffffffffffffffffff1673ffffffffffffffffffffffffffffffffffffffff1673ffffffffffffffffffffffffffffffffffffffff168152602001600482015481525050815260200190600101906102b8565b50505050905090565b60006040518060a0016040528060015481526020018481526020018381526020013373ffffffffffffffffffffffffffffffffffffffff16815260200142815250908060018154018082558091505060019003906000526020600020906005020160009091909190915060008201518160000155602082015181600101908161050a9190611014565b5060408201518160020190816105209190611014565b5060608201518160030160006101000a81548173ffffffffffffffffffffffffffffffffffffffff021916908373ffffffffffffffffffffffffffffffffffffffff1602179055506080820151816004015550507f618e7c0a5a81623326df1e96b95cff24f2c4577dee149d58c750693fc1059a1460015483336040516105a9939291906110e6565b60405180910390a1600160008154809291906105c490611153565b91905055505050565b6105d56107db565b6001548210610619576040517f08c379a0000000000000000000000000000000000000000000000000000000008152600401610610906111e7565b60405180910390fd5b6000828154811061062d5761062c611207565b5b90600052602060002090600502016040518060a00160405290816000820154815260200160018201805461066090610e37565b80601f016020809104026020016040519081016040528092919081815260200182805461068c90610e37565b80156106d95780601f106106ae576101008083540402835291602001916106d9565b820191906000526020600020905b8154815290600101906020018083116106bc57829003601f168201915b505050505081526020016002820180546106f290610e37565b80601f016020809104026020016040519081016040528092919081815260200182805461071e90610e37565b801561076b5780601f106107405761010080835404028352916020019161076b565b820191906000526020600020905b81548152906001019060200180831161074e57829003601f168201915b505050505081526020016003820160009054906101000a900473ffffffffffffffffffffffffffffffffffffffff1673ffffffffffffffffffffffffffffffffffffffff1673ffffffffffffffffffffffffffffffffffffffff1681526020016004820154815250509050919050565b6040518060a00160405280600081526020016060815260200160608152602001600073ffffffffffffffffffffffffffffffffffffffff168152602001600081525090565b6000604051905090565b600080fd5b600080fd5b6000819050919050565b61084781610834565b811461085257600080fd5b50565b6000813590506108648161083e565b92915050565b6000602082840312156108805761087f61082a565b5b600061088e84828501610855565b91505092915050565b6108a081610834565b82525050565b600081519050919050565b600082825260208201905092915050565b60005b838110156108e05780820151818401526020810190506108c5565b60008484015250505050565b6000601f19601f8301169050919050565b6000610908826108a6565b61091281856108b1565b93506109228185602086016108c2565b61092b816108ec565b840191505092915050565b600073ffffffffffffffffffffffffffffffffffffffff82169050919050565b600061096182610936565b9050919050565b61097181610956565b82525050565b600060a08201905061098c6000830188610897565b818103602083015261099e81876108fd565b905081810360408301526109b281866108fd565b90506109c16060830185610968565b6109ce6080830184610897565b9695505050505050565b60006020820190506109ed6000830184610897565b92915050565b600081519050919050565b600082825260208201905092915050565b6000819050602082019050919050565b610a2881610834565b82525050565b600082825260208201905092915050565b6000610a4a826108a6565b610a548185610a2e565b9350610a648185602086016108c2565b610a6d816108ec565b840191505092915050565b610a8181610956565b82525050565b600060a083016000830151610a9f6000860182610a1f565b5060208301518482036020860152610ab78282610a3f565b91505060408301518482036040860152610ad18282610a3f565b9150506060830151610ae66060860182610a78565b506080830151610af96080860182610a1f565b508091505092915050565b6000610b108383610a87565b905092915050565b6000602082019050919050565b6000610b30826109f3565b610b3a81856109fe565b935083602082028501610b4c85610a0f565b8060005b85811015610b885784840389528151610b698582610b04565b9450610b7483610b18565b925060208a01995050600181019050610b50565b50829750879550505050505092915050565b60006020820190508181036000830152610bb48184610b25565b905092915050565b600080fd5b600080fd5b7f4e487b7100000000000000000000000000000000000000000000000000000000600052604160045260246000fd5b610bfe826108ec565b810181811067ffffffffffffffff82111715610c1d57610c1c610bc6565b5b80604052505050565b6000610c30610820565b9050610c3c8282610bf5565b919050565b600067ffffffffffffffff821115610c5c57610c5b610bc6565b5b610c65826108ec565b9050602081019050919050565b82818337600083830152505050565b6000610c94610c8f84610c41565b610c26565b905082815260208101848484011115610cb057610caf610bc1565b5b610cbb848285610c72565b509392505050565b600082601f830112610cd857610cd7610bbc565b5b8135610ce8848260208601610c81565b91505092915050565b60008060408385031215610d0857610d0761082a565b5b600083013567ffffffffffffffff811115610d2657610d2561082f565b5b610d3285828601610cc3565b925050602083013567ffffffffffffffff811115610d5357610d5261082f565b5b610d5f85828601610cc3565b9150509250929050565b600060a083016000830151610d816000860182610a1f565b5060208301518482036020860152610d998282610a3f565b91505060408301518482036040860152610db38282610a3f565b9150506060830151610dc86060860182610a78565b506080830151610ddb6080860182610a1f565b508091505092915050565b60006020820190508181036000830152610e008184610d69565b905092915050565b7f4e487b7100000000000000000000000000000000000000000000000000000000600052602260045260246000fd5b60006002820490506001821680610e4f57607f821691505b602082108103610e6257610e61610e08565b5b50919050565b60008190508160005260206000209050919050565b60006020601f8301049050919050565b600082821b905092915050565b600060088302610eca7fffffffffffffffffffffffffffffffffffffffffffffffffffffffffffffffff82610e8d565b610ed48683610e8d565b95508019841693508086168417925050509392505050565b6000819050919050565b6000610f11610f0c610f0784610834565b610eec565b610834565b9050919050565b6000819050919050565b610f2b83610ef6565b610f3f610f3782610f18565b848454610e9a565b825550505050565b600090565b610f54610f47565b610f5f818484610f22565b505050565b5b81811015610f8357610f78600082610f4c565b600181019050610f65565b5050565b601f821115610fc857610f9981610e68565b610fa284610e7d565b81016020851015610fb1578190505b610fc5610fbd85610e7d565b830182610f64565b50505b505050565b600082821c905092915050565b6000610feb60001984600802610fcd565b1980831691505092915050565b60006110048383610fda565b9150826002028217905092915050565b61101d826108a6565b67ffffffffffffffff81111561103657611035610bc6565b5b6110408254610e37565b61104b828285610f87565b600060209050601f83116001811461107e576000841561106c578287015190505b6110768582610ff8565b8655506110de565b601f19841661108c86610e68565b60005b828110156110b45784890151825560018201915060208501945060208101905061108f565b868310156110d157848901516110cd601f891682610fda565b8355505b6001600288020188555050505b505050505050565b60006060820190506110fb6000830186610897565b818103602083015261110d81856108fd565b905061111c6040830184610968565b949350505050565b7f4e487b7100000000000000000000000000000000000000000000000000000000600052601160045260246000fd5b600061115e82610834565b91507fffffffffffffffffffffffffffffffffffffffffffffffffffffffffffffffff82036111905761118f611124565b5b600182019050919050565b7f506f737420646f6573206e6f7420657869737400000000000000000000000000600082015250565b60006111d16013836108b1565b91506111dc8261119b565b602082019050919050565b60006020820190508181036000830152611200816111c4565b9050919050565b7f4e487b7100000000000000000000000000000000000000000000000000000000600052603260045260246000fdfea2646970667358221220c952aad9faf1a0c73b8bcb200f49733d61276c0202e6c01cdd67ee5ae7feb16064736f6c63430008120033",
  "immutableReferences": {},
  "source": "// SPDX-License-Identifier: MIT\npragma solidity ^0.8.0;\n\ncontract Comment {\n    struct Post {\n        uint id;\n        string title;\n        string content;\n        address author;\n        uint timestamp;\n    }\n\n    Post[] public posts;\n    uint public postCount = 0;\n\n    event PostCreated(uint id, string title, address author);\n\n    function createPost(string memory _title, string memory _content) public {\n        posts.push(Post(postCount, _title, _content, msg.sender, block.timestamp));\n        emit PostCreated(postCount, _title, msg.sender);\n        postCount++;\n    }\n\n    function getPost(uint _id) public view returns (Post memory) {\n        require(_id < postCount, \"Post does not exist\");\n        return posts[_id];\n    }\n\n    function getAllPosts() public view returns (Post[] memory) {\n        return posts;\n    }\n}\n",
  "sourcePath": "/Users/kdi/Desktop/my_web3/react_truffle/truffle/contracts/Comment.sol",
  "compiler": {
    "name": "solc",
    "version": "0.8.18+commit.87f61d96.Emscripten.clang"
  },
  "schemaVersion": "3.4.16",
  "updatedAt": "2025-06-08T13:57:07.411Z",
  "networkType": "ethereum",
  "devdoc": {
    "kind": "dev",
    "methods": {},
    "version": 1
  },
  "userdoc": {
    "kind": "user",
    "methods": {},
    "version": 1
  }
}