{
  "contractName": "Fruit",
  "abi": [
    {
      "inputs": [
        {
          "internalType": "uint256",
          "name": "_quantity",
          "type": "uint256"
        }
      ],
      "stateMutability": "payable",
      "type": "constructor",
      "payable": true
    },
    {
      "stateMutability": "payable",
      "type": "fallback",
      "payable": true
    },
    {
      "inputs": [],
      "name": "owner",
      "outputs": [
        {
          "internalType": "address payable",
          "name": "",
          "type": "address"
        }
      ],
      "stateMutability": "view",
      "type": "function",
      "constant": true
    },
    {
      "stateMutability": "payable",
      "type": "receive",
      "payable": true
    },
    {
      "inputs": [],
      "name": "read_price",
      "outputs": [
        {
          "internalType": "uint256",
          "name": "",
          "type": "uint256"
        }
      ],
      "stateMutability": "view",
      "type": "function",
      "constant": true
    },
    {
      "inputs": [
        {
          "internalType": "uint256",
          "name": "newValue",
          "type": "uint256"
        }
      ],
      "name": "write_price",
      "outputs": [],
      "stateMutability": "nonpayable",
      "type": "function"
    },
    {
      "inputs": [],
      "name": "read_quantity",
      "outputs": [
        {
          "internalType": "uint256",
          "name": "",
          "type": "uint256"
        }
      ],
      "stateMutability": "view",
      "type": "function",
      "constant": true
    },
    {
      "inputs": [
        {
          "internalType": "uint256",
          "name": "newValue",
          "type": "uint256"
        }
      ],
      "name": "write_quantity",
      "outputs": [],
      "stateMutability": "nonpayable",
      "type": "function"
    },
    {
      "inputs": [],
      "name": "read_budget",
      "outputs": [
        {
          "internalType": "uint256",
          "name": "",
          "type": "uint256"
        }
      ],
      "stateMutability": "view",
      "type": "function",
      "constant": true
    },
    {
      "inputs": [
        {
          "internalType": "uint256",
          "name": "amount",
          "type": "uint256"
        }
      ],
      "name": "decrease_quantity",
      "outputs": [],
      "stateMutability": "nonpayable",
      "type": "function"
    }
  ],
  "bytecode": "0x6080604052604051610749380380610749833981810160405281019061002591906100c2565b336000806101000a81548173ffffffffffffffffffffffffffffffffffffffff021916908373ffffffffffffffffffffffffffffffffffffffff1602179055506509184e72a000600181905550806002819055506000600381905550506100ef565b600080fd5b6000819050919050565b61009f8161008c565b81146100aa57600080fd5b50565b6000815190506100bc81610096565b92915050565b6000602082840312156100d8576100d7610087565b5b60006100e6848285016100ad565b91505092915050565b61064b806100fe6000396000f3fe6080604052600436106100745760003560e01c80638da5cb5b1161004e5780638da5cb5b1461012c578063ade2a3e914610157578063c4aab8b114610182578063dd1efa0a146101ab57610093565b806341a00b5c146100ad5780637b6ce026146100d65780638c4439591461010157610093565b3661009357346003600082825461008b91906103e0565b925050819055005b34600360008282546100a591906103e0565b925050819055005b3480156100b957600080fd5b506100d460048036038101906100cf9190610445565b6101d4565b005b3480156100e257600080fd5b506100eb61026c565b6040516100f89190610481565b60405180910390f35b34801561010d57600080fd5b50610116610276565b6040516101239190610481565b60405180910390f35b34801561013857600080fd5b50610141610280565b60405161014e91906104dd565b60405180910390f35b34801561016357600080fd5b5061016c6102a4565b6040516101799190610481565b60405180910390f35b34801561018e57600080fd5b506101a960048036038101906101a49190610445565b6102ae565b005b3480156101b757600080fd5b506101d260048036038101906101cd9190610445565b61030f565b005b60008054906101000a900473ffffffffffffffffffffffffffffffffffffffff1673ffffffffffffffffffffffffffffffffffffffff163373ffffffffffffffffffffffffffffffffffffffff1614610262576040517f08c379a000000000000000000000000000000000000000000000000000000000815260040161025990610555565b60405180910390fd5b8060018190555050565b6000600354905090565b6000600154905090565b60008054906101000a900473ffffffffffffffffffffffffffffffffffffffff1681565b6000600254905090565b8060025410156102f3576040517f08c379a00000000000000000000000000000000000000000000000000000000081526004016102ea906105c1565b60405180910390fd5b806002600082825461030591906105e1565b9250508190555050565b60008054906101000a900473ffffffffffffffffffffffffffffffffffffffff1673ffffffffffffffffffffffffffffffffffffffff163373ffffffffffffffffffffffffffffffffffffffff161461039d576040517f08c379a000000000000000000000000000000000000000000000000000000000815260040161039490610555565b60405180910390fd5b8060028190555050565b6000819050919050565b7f4e487b7100000000000000000000000000000000000000000000000000000000600052601160045260246000fd5b60006103eb826103a7565b91506103f6836103a7565b925082820190508082111561040e5761040d6103b1565b5b92915050565b600080fd5b610422816103a7565b811461042d57600080fd5b50565b60008135905061043f81610419565b92915050565b60006020828403121561045b5761045a610414565b5b600061046984828501610430565b91505092915050565b61047b816103a7565b82525050565b60006020820190506104966000830184610472565b92915050565b600073ffffffffffffffffffffffffffffffffffffffff82169050919050565b60006104c78261049c565b9050919050565b6104d7816104bc565b82525050565b60006020820190506104f260008301846104ce565b92915050565b600082825260208201905092915050565b7f4e6f7420746865206f776e657200000000000000000000000000000000000000600082015250565b600061053f600d836104f8565b915061054a82610509565b602082019050919050565b6000602082019050818103600083015261056e81610532565b9050919050565b7f4e6f7420656e6f75676820667275697420696e2073746f636b00000000000000600082015250565b60006105ab6019836104f8565b91506105b682610575565b602082019050919050565b600060208201905081810360008301526105da8161059e565b9050919050565b60006105ec826103a7565b91506105f7836103a7565b925082820390508181111561060f5761060e6103b1565b5b9291505056fea2646970667358221220faf05524fb1b69b5f039bf9572a9d5687dd714fb5597c128e0a19835cbaabfb164736f6c63430008120033",
  "immutableReferences": {},
  "source": "// SPDX-License-Identifier: MIT\npragma solidity >=0.8.0 <0.9.0;\n\ncontract Fruit {\n    address payable public owner;\n    uint256 price;\n    uint256 quantity;\n    uint256 budget;\n\n    constructor(uint256 _quantity) payable {\n        owner = payable(msg.sender);\n        price = 0.00001 ether;\n        quantity = _quantity;\n        budget = 0 ether;\n    }\n\n    modifier onlyOwner() {\n        require(msg.sender == owner, \"Not the owner\");\n        _;\n    }\n\n    function read_price() public view returns (uint256) {\n        return price;\n    }\n\n    function write_price(uint256 newValue) public onlyOwner {\n        price = newValue;\n    }\n\n    function read_quantity() public view returns (uint256) {\n        return quantity;\n    }\n\n    function write_quantity(uint256 newValue) public onlyOwner {\n        quantity = newValue;\n    }\n\n    function read_budget() public view returns (uint256) {\n        return budget;\n    }\n\n    function decrease_quantity(uint256 amount) public  {\n        require(quantity >= amount, \"Not enough fruit in stock\");\n        quantity -= amount;\n    }\n\n    receive() external payable {\n      budget += msg.value;\n    }\n\n    fallback() external payable {\n      budget += msg.value;\n    }\n}\n",
  "sourcePath": "/Users/kdi/Desktop/my_web3/react_truffle/truffle/contracts/Fruit.sol",
  "compiler": {
    "name": "solc",
    "version": "0.8.18+commit.87f61d96.Emscripten.clang"
  },
  "schemaVersion": "3.4.16",
  "updatedAt": "2025-06-13T13:54:39.877Z",
  "networkType": "ethereum",
  "devdoc": {
    "kind": "dev",
    "methods": {},
    "version": 1
  },
  "userdoc": {
    "kind": "user",
    "methods": {},
    "version": 1
  }
}